{
  "_format": "hh-sol-artifact-1",
  "contractName": "VerifikasiIjazah",
  "sourceName": "contracts/VerifikasiIjazah.sol",
  "abi": [
    {
      "inputs": [
        {
          "internalType": "string",
          "name": "",
          "type": "string"
        }
      ],
      "name": "dataIjazah",
      "outputs": [
        {
          "internalType": "string",
          "name": "namaPemilik",
          "type": "string"
        },
        {
          "internalType": "string",
          "name": "nim",
          "type": "string"
        },
        {
          "internalType": "string",
          "name": "prodi",
          "type": "string"
        },
        {
          "internalType": "string",
          "name": "tahunLulus",
          "type": "string"
        },
        {
          "internalType": "string",
          "name": "hashIjazah",
          "type": "string"
        },
        {
          "internalType": "bool",
          "name": "valid",
          "type": "bool"
        }
      ],
      "stateMutability": "view",
      "type": "function"
    },
    {
      "inputs": [
        {
          "internalType": "string",
          "name": "_nim",
          "type": "string"
        },
        {
          "internalType": "string",
          "name": "_namaPemilik",
          "type": "string"
        },
        {
          "internalType": "string",
          "name": "_prodi",
          "type": "string"
        },
        {
          "internalType": "string",
          "name": "_tahunLulus",
          "type": "string"
        },
        {
          "internalType": "string",
          "name": "_hashIjazah",
          "type": "string"
        }
      ],
      "name": "tambahIjazah",
      "outputs": [],
      "stateMutability": "nonpayable",
      "type": "function"
    },
    {
      "inputs": [
        {
          "internalType": "string",
          "name": "_nim",
          "type": "string"
        },
        {
          "internalType": "string",
          "name": "_hashInput",
          "type": "string"
        }
      ],
      "name": "verifikasiIjazah",
      "outputs": [
        {
          "internalType": "bool",
          "name": "",
          "type": "bool"
        }
      ],
      "stateMutability": "view",
      "type": "function"
    }
  ],
  "bytecode": "0x6080604052348015600f57600080fd5b50610d838061001f6000396000f3fe608060405234801561001057600080fd5b50600436106100415760003560e01c806313d365b114610046578063dd62272714610076578063fd2f620f146100ab575b600080fd5b610060600480360381019061005b9190610657565b6100c7565b60405161006d91906106ea565b60405180910390f35b610090600480360381019061008b9190610705565b610110565b6040516100a2969594939291906107cd565b60405180910390f35b6100c560048036038101906100c09190610851565b610417565b005b600081805190602001206000846040516100e19190610994565b90815260200160405180910390206004016040516100ff9190610aae565b604051809103902014905092915050565b600081805160208101820180518482526020830160208501208183528095505050505050600091509050806000018054610149906109da565b80601f0160208091040260200160405190810160405280929190818152602001828054610175906109da565b80156101c25780601f10610197576101008083540402835291602001916101c2565b820191906000526020600020905b8154815290600101906020018083116101a557829003601f168201915b5050505050908060010180546101d7906109da565b80601f0160208091040260200160405190810160405280929190818152602001828054610203906109da565b80156102505780601f1061022557610100808354040283529160200191610250565b820191906000526020600020905b81548152906001019060200180831161023357829003601f168201915b505050505090806002018054610265906109da565b80601f0160208091040260200160405190810160405280929190818152602001828054610291906109da565b80156102de5780601f106102b3576101008083540402835291602001916102de565b820191906000526020600020905b8154815290600101906020018083116102c157829003601f168201915b5050505050908060030180546102f3906109da565b80601f016020809104026020016040519081016040528092919081815260200182805461031f906109da565b801561036c5780601f106103415761010080835404028352916020019161036c565b820191906000526020600020905b81548152906001019060200180831161034f57829003601f168201915b505050505090806004018054610381906109da565b80601f01602080910402602001604051908101604052809291908181526020018280546103ad906109da565b80156103fa5780601f106103cf576101008083540402835291602001916103fa565b820191906000526020600020905b8154815290600101906020018083116103dd57829003601f168201915b5050505050908060050160009054906101000a900460ff16905086565b6040518060c00160405280858152602001868152602001848152602001838152602001828152602001600115158152506000866040516104579190610994565b9081526020016040518091039020600082015181600001908161047a9190610c7b565b5060208201518160010190816104909190610c7b565b5060408201518160020190816104a69190610c7b565b5060608201518160030190816104bc9190610c7b565b5060808201518160040190816104d29190610c7b565b5060a08201518160050160006101000a81548160ff0219169083151502179055509050505050505050565b6000604051905090565b600080fd5b600080fd5b600080fd5b600080fd5b6000601f19601f8301169050919050565b7f4e487b7100000000000000000000000000000000000000000000000000000000600052604160045260246000fd5b6105648261051b565b810181811067ffffffffffffffff821117156105835761058261052c565b5b80604052505050565b60006105966104fd565b90506105a2828261055b565b919050565b600067ffffffffffffffff8211156105c2576105c161052c565b5b6105cb8261051b565b9050602081019050919050565b82818337600083830152505050565b60006105fa6105f5846105a7565b61058c565b90508281526020810184848401111561061657610615610516565b5b6106218482856105d8565b509392505050565b600082601f83011261063e5761063d610511565b5b813561064e8482602086016105e7565b91505092915050565b6000806040838503121561066e5761066d610507565b5b600083013567ffffffffffffffff81111561068c5761068b61050c565b5b61069885828601610629565b925050602083013567ffffffffffffffff8111156106b9576106b861050c565b5b6106c585828601610629565b9150509250929050565b60008115159050919050565b6106e4816106cf565b82525050565b60006020820190506106ff60008301846106db565b92915050565b60006020828403121561071b5761071a610507565b5b600082013567ffffffffffffffff8111156107395761073861050c565b5b61074584828501610629565b91505092915050565b600081519050919050565b600082825260208201905092915050565b60005b8381101561078857808201518184015260208101905061076d565b60008484015250505050565b600061079f8261074e565b6107a98185610759565b93506107b981856020860161076a565b6107c28161051b565b840191505092915050565b600060c08201905081810360008301526107e78189610794565b905081810360208301526107fb8188610794565b9050818103604083015261080f8187610794565b905081810360608301526108238186610794565b905081810360808301526108378185610794565b905061084660a08301846106db565b979650505050505050565b600080600080600060a0868803121561086d5761086c610507565b5b600086013567ffffffffffffffff81111561088b5761088a61050c565b5b61089788828901610629565b955050602086013567ffffffffffffffff8111156108b8576108b761050c565b5b6108c488828901610629565b945050604086013567ffffffffffffffff8111156108e5576108e461050c565b5b6108f188828901610629565b935050606086013567ffffffffffffffff8111156109125761091161050c565b5b61091e88828901610629565b925050608086013567ffffffffffffffff81111561093f5761093e61050c565b5b61094b88828901610629565b9150509295509295909350565b600081905092915050565b600061096e8261074e565b6109788185610958565b935061098881856020860161076a565b80840191505092915050565b60006109a08284610963565b915081905092915050565b7f4e487b7100000000000000000000000000000000000000000000000000000000600052602260045260246000fd5b600060028204905060018216806109f257607f821691505b602082108103610a0557610a046109ab565b5b50919050565b600081905092915050565b60008190508160005260206000209050919050565b60008154610a38816109da565b610a428186610a0b565b94506001821660008114610a5d5760018114610a7257610aa5565b60ff1983168652811515820286019350610aa5565b610a7b85610a16565b60005b83811015610a9d57815481890152600182019150602081019050610a7e565b838801955050505b50505092915050565b6000610aba8284610a2b565b915081905092915050565b60008190508160005260206000209050919050565b60006020601f8301049050919050565b600082821b905092915050565b600060088302610b277fffffffffffffffffffffffffffffffffffffffffffffffffffffffffffffffff82610aea565b610b318683610aea565b95508019841693508086168417925050509392505050565b6000819050919050565b6000819050919050565b6000610b78610b73610b6e84610b49565b610b53565b610b49565b9050919050565b6000819050919050565b610b9283610b5d565b610ba6610b9e82610b7f565b848454610af7565b825550505050565b600090565b610bbb610bae565b610bc6818484610b89565b505050565b5b81811015610bea57610bdf600082610bb3565b600181019050610bcc565b5050565b601f821115610c2f57610c0081610ac5565b610c0984610ada565b81016020851015610c18578190505b610c2c610c2485610ada565b830182610bcb565b50505b505050565b600082821c905092915050565b6000610c5260001984600802610c34565b1980831691505092915050565b6000610c6b8383610c41565b9150826002028217905092915050565b610c848261074e565b67ffffffffffffffff811115610c9d57610c9c61052c565b5b610ca782546109da565b610cb2828285610bee565b600060209050601f831160018114610ce55760008415610cd3578287015190505b610cdd8582610c5f565b865550610d45565b601f198416610cf386610ac5565b60005b82811015610d1b57848901518255600182019150602085019450602081019050610cf6565b86831015610d385784890151610d34601f891682610c41565b8355505b6001600288020188555050505b50505050505056fea26469706673582212209e0f7db252e5e0cf08c64c40ce1d125b1940c2f363ea6b332ec8188987258ac464736f6c634300081c0033",
  "linkReferences": {},
  "deployedLinkReferences": {}
}